{
  "_format": "hh-sol-artifact-1",
  "contractName": "SopproGame",
  "sourceName": "contracts/SopproGame.sol",
  "abi": [
    {
      "inputs": [
        {
          "internalType": "string[]",
          "name": "charNames",
          "type": "string[]"
        },
        {
          "internalType": "string[]",
          "name": "charImageURIs",
          "type": "string[]"
        },
        {
          "internalType": "uint256[]",
          "name": "charHP",
          "type": "uint256[]"
        },
        {
          "internalType": "uint256[]",
          "name": "charAttackDamage",
          "type": "uint256[]"
        },
        {
          "internalType": "string",
          "name": "bossName",
          "type": "string"
        },
        {
          "internalType": "string",
          "name": "bossImageURI",
          "type": "string"
        },
        {
          "internalType": "uint256",
          "name": "bossHP",
          "type": "uint256"
        },
        {
          "internalType": "uint256",
          "name": "bossAttackDamage",
          "type": "uint256"
        }
      ],
      "stateMutability": "nonpayable",
      "type": "constructor"
    },
    {
      "anonymous": false,
      "inputs": [
        {
          "indexed": true,
          "internalType": "address",
          "name": "owner",
          "type": "address"
        },
        {
          "indexed": true,
          "internalType": "address",
          "name": "approved",
          "type": "address"
        },
        {
          "indexed": true,
          "internalType": "uint256",
          "name": "tokenId",
          "type": "uint256"
        }
      ],
      "name": "Approval",
      "type": "event"
    },
    {
      "anonymous": false,
      "inputs": [
        {
          "indexed": true,
          "internalType": "address",
          "name": "owner",
          "type": "address"
        },
        {
          "indexed": true,
          "internalType": "address",
          "name": "operator",
          "type": "address"
        },
        {
          "indexed": false,
          "internalType": "bool",
          "name": "approved",
          "type": "bool"
        }
      ],
      "name": "ApprovalForAll",
      "type": "event"
    },
    {
      "anonymous": false,
      "inputs": [
        {
          "indexed": false,
          "internalType": "uint256",
          "name": "newBossHP",
          "type": "uint256"
        },
        {
          "indexed": false,
          "internalType": "uint256",
          "name": "newPlayerHP",
          "type": "uint256"
        }
      ],
      "name": "Attacked",
      "type": "event"
    },
    {
      "anonymous": false,
      "inputs": [
        {
          "indexed": false,
          "internalType": "address",
          "name": "sender",
          "type": "address"
        },
        {
          "indexed": false,
          "internalType": "uint256",
          "name": "tokenID",
          "type": "uint256"
        },
        {
          "indexed": false,
          "internalType": "uint256",
          "name": "charIndex",
          "type": "uint256"
        }
      ],
      "name": "CharacterMinted",
      "type": "event"
    },
    {
      "anonymous": false,
      "inputs": [
        {
          "indexed": true,
          "internalType": "address",
          "name": "from",
          "type": "address"
        },
        {
          "indexed": true,
          "internalType": "address",
          "name": "to",
          "type": "address"
        },
        {
          "indexed": true,
          "internalType": "uint256",
          "name": "tokenId",
          "type": "uint256"
        }
      ],
      "name": "Transfer",
      "type": "event"
    },
    {
      "inputs": [
        {
          "internalType": "address",
          "name": "to",
          "type": "address"
        },
        {
          "internalType": "uint256",
          "name": "tokenId",
          "type": "uint256"
        }
      ],
      "name": "approve",
      "outputs": [],
      "stateMutability": "nonpayable",
      "type": "function"
    },
    {
      "inputs": [],
      "name": "attackBoss",
      "outputs": [],
      "stateMutability": "nonpayable",
      "type": "function"
    },
    {
      "inputs": [
        {
          "internalType": "address",
          "name": "owner",
          "type": "address"
        }
      ],
      "name": "balanceOf",
      "outputs": [
        {
          "internalType": "uint256",
          "name": "",
          "type": "uint256"
        }
      ],
      "stateMutability": "view",
      "type": "function"
    },
    {
      "inputs": [],
      "name": "bossLevel1",
      "outputs": [
        {
          "internalType": "string",
          "name": "name",
          "type": "string"
        },
        {
          "internalType": "string",
          "name": "imageURI",
          "type": "string"
        },
        {
          "internalType": "uint256",
          "name": "hp",
          "type": "uint256"
        },
        {
          "internalType": "uint256",
          "name": "maxHP",
          "type": "uint256"
        },
        {
          "internalType": "uint256",
          "name": "attackDamage",
          "type": "uint256"
        }
      ],
      "stateMutability": "view",
      "type": "function"
    },
    {
      "inputs": [
        {
          "internalType": "uint256",
          "name": "tokenId",
          "type": "uint256"
        }
      ],
      "name": "getApproved",
      "outputs": [
        {
          "internalType": "address",
          "name": "",
          "type": "address"
        }
      ],
      "stateMutability": "view",
      "type": "function"
    },
    {
      "inputs": [],
      "name": "getBossL1",
      "outputs": [
        {
          "components": [
            {
              "internalType": "string",
              "name": "name",
              "type": "string"
            },
            {
              "internalType": "string",
              "name": "imageURI",
              "type": "string"
            },
            {
              "internalType": "uint256",
              "name": "hp",
              "type": "uint256"
            },
            {
              "internalType": "uint256",
              "name": "maxHP",
              "type": "uint256"
            },
            {
              "internalType": "uint256",
              "name": "attackDamage",
              "type": "uint256"
            }
          ],
          "internalType": "struct SopproGame.BossLevel1",
          "name": "",
          "type": "tuple"
        }
      ],
      "stateMutability": "view",
      "type": "function"
    },
    {
      "inputs": [],
      "name": "getDefaultChars",
      "outputs": [
        {
          "components": [
            {
              "internalType": "uint256",
              "name": "characterIndex",
              "type": "uint256"
            },
            {
              "internalType": "string",
              "name": "name",
              "type": "string"
            },
            {
              "internalType": "string",
              "name": "imageURI",
              "type": "string"
            },
            {
              "internalType": "uint256",
              "name": "hp",
              "type": "uint256"
            },
            {
              "internalType": "uint256",
              "name": "maxHP",
              "type": "uint256"
            },
            {
              "internalType": "uint256",
              "name": "attackDamage",
              "type": "uint256"
            }
          ],
          "internalType": "struct SopproGame.Character[]",
          "name": "",
          "type": "tuple[]"
        }
      ],
      "stateMutability": "view",
      "type": "function"
    },
    {
      "inputs": [],
      "name": "hasNFT",
      "outputs": [
        {
          "components": [
            {
              "internalType": "uint256",
              "name": "characterIndex",
              "type": "uint256"
            },
            {
              "internalType": "string",
              "name": "name",
              "type": "string"
            },
            {
              "internalType": "string",
              "name": "imageURI",
              "type": "string"
            },
            {
              "internalType": "uint256",
              "name": "hp",
              "type": "uint256"
            },
            {
              "internalType": "uint256",
              "name": "maxHP",
              "type": "uint256"
            },
            {
              "internalType": "uint256",
              "name": "attackDamage",
              "type": "uint256"
            }
          ],
          "internalType": "struct SopproGame.Character",
          "name": "",
          "type": "tuple"
        }
      ],
      "stateMutability": "view",
      "type": "function"
    },
    {
      "inputs": [
        {
          "internalType": "address",
          "name": "owner",
          "type": "address"
        },
        {
          "internalType": "address",
          "name": "operator",
          "type": "address"
        }
      ],
      "name": "isApprovedForAll",
      "outputs": [
        {
          "internalType": "bool",
          "name": "",
          "type": "bool"
        }
      ],
      "stateMutability": "view",
      "type": "function"
    },
    {
      "inputs": [
        {
          "internalType": "uint256",
          "name": "_charIndex",
          "type": "uint256"
        }
      ],
      "name": "mintCharacter",
      "outputs": [],
      "stateMutability": "nonpayable",
      "type": "function"
    },
    {
      "inputs": [],
      "name": "name",
      "outputs": [
        {
          "internalType": "string",
          "name": "",
          "type": "string"
        }
      ],
      "stateMutability": "view",
      "type": "function"
    },
    {
      "inputs": [
        {
          "internalType": "uint256",
          "name": "",
          "type": "uint256"
        }
      ],
      "name": "nftHolderAttributes",
      "outputs": [
        {
          "internalType": "uint256",
          "name": "characterIndex",
          "type": "uint256"
        },
        {
          "internalType": "string",
          "name": "name",
          "type": "string"
        },
        {
          "internalType": "string",
          "name": "imageURI",
          "type": "string"
        },
        {
          "internalType": "uint256",
          "name": "hp",
          "type": "uint256"
        },
        {
          "internalType": "uint256",
          "name": "maxHP",
          "type": "uint256"
        },
        {
          "internalType": "uint256",
          "name": "attackDamage",
          "type": "uint256"
        }
      ],
      "stateMutability": "view",
      "type": "function"
    },
    {
      "inputs": [
        {
          "internalType": "address",
          "name": "",
          "type": "address"
        }
      ],
      "name": "nftHolders",
      "outputs": [
        {
          "internalType": "uint256",
          "name": "",
          "type": "uint256"
        }
      ],
      "stateMutability": "view",
      "type": "function"
    },
    {
      "inputs": [
        {
          "internalType": "uint256",
          "name": "tokenId",
          "type": "uint256"
        }
      ],
      "name": "ownerOf",
      "outputs": [
        {
          "internalType": "address",
          "name": "",
          "type": "address"
        }
      ],
      "stateMutability": "view",
      "type": "function"
    },
    {
      "inputs": [
        {
          "internalType": "address",
          "name": "from",
          "type": "address"
        },
        {
          "internalType": "address",
          "name": "to",
          "type": "address"
        },
        {
          "internalType": "uint256",
          "name": "tokenId",
          "type": "uint256"
        }
      ],
      "name": "safeTransferFrom",
      "outputs": [],
      "stateMutability": "nonpayable",
      "type": "function"
    },
    {
      "inputs": [
        {
          "internalType": "address",
          "name": "from",
          "type": "address"
        },
        {
          "internalType": "address",
          "name": "to",
          "type": "address"
        },
        {
          "internalType": "uint256",
          "name": "tokenId",
          "type": "uint256"
        },
        {
          "internalType": "bytes",
          "name": "_data",
          "type": "bytes"
        }
      ],
      "name": "safeTransferFrom",
      "outputs": [],
      "stateMutability": "nonpayable",
      "type": "function"
    },
    {
      "inputs": [
        {
          "internalType": "address",
          "name": "operator",
          "type": "address"
        },
        {
          "internalType": "bool",
          "name": "approved",
          "type": "bool"
        }
      ],
      "name": "setApprovalForAll",
      "outputs": [],
      "stateMutability": "nonpayable",
      "type": "function"
    },
    {
      "inputs": [
        {
          "internalType": "bytes4",
          "name": "interfaceId",
          "type": "bytes4"
        }
      ],
      "name": "supportsInterface",
      "outputs": [
        {
          "internalType": "bool",
          "name": "",
          "type": "bool"
        }
      ],
      "stateMutability": "view",
      "type": "function"
    },
    {
      "inputs": [],
      "name": "symbol",
      "outputs": [
        {
          "internalType": "string",
          "name": "",
          "type": "string"
        }
      ],
      "stateMutability": "view",
      "type": "function"
    },
    {
      "inputs": [
        {
          "internalType": "uint256",
          "name": "_tokenID",
          "type": "uint256"
        }
      ],
      "name": "tokenURI",
      "outputs": [
        {
          "internalType": "string",
          "name": "",
          "type": "string"
        }
      ],
      "stateMutability": "view",
      "type": "function"
    },
    {
      "inputs": [
        {
          "internalType": "address",
          "name": "from",
          "type": "address"
        },
        {
          "internalType": "address",
          "name": "to",
          "type": "address"
        },
        {
          "internalType": "uint256",
          "name": "tokenId",
          "type": "uint256"
        }
      ],
      "name": "transferFrom",
      "outputs": [],
      "stateMutability": "nonpayable",
      "type": "function"
    }
  ],
  "bytecode": "0x60806040523480156200001157600080fd5b5060405162004e2638038062004e2683398181016040528101906200003791906200065c565b6040518060400160405280600781526020017f536f7070726f73000000000000000000000000000000000000000000000000008152506040518060400160405280600481526020017f53505052000000000000000000000000000000000000000000000000000000008152508160009080519060200190620000bb929190620003c4565b508060019080519060200190620000d4929190620003c4565b50505060005b8851811015620003005760096040518060c001604052808381526020018b848151811062000131577f4e487b7100000000000000000000000000000000000000000000000000000000600052603260045260246000fd5b602002602001015181526020018a848151811062000178577f4e487b7100000000000000000000000000000000000000000000000000000000600052603260045260246000fd5b60200260200101518152602001898481518110620001bf577f4e487b7100000000000000000000000000000000000000000000000000000000600052603260045260246000fd5b6020026020010151815260200189848151811062000206577f4e487b7100000000000000000000000000000000000000000000000000000000600052603260045260246000fd5b602002602001015181526020018884815181106200024d577f4e487b7100000000000000000000000000000000000000000000000000000000600052603260045260246000fd5b60200260200101518152509080600181540180825580915050600190039060005260206000209060060201600090919091909150600082015181600001556020820151816001019080519060200190620002a9929190620003c4565b506040820151816002019080519060200190620002c8929190620003c4565b50606082015181600301556080820151816004015560a082015181600501555050600181620002f8919062000872565b9050620000da565b506040518060a0016040528085815260200184815260200183815260200183815260200182815250600a600082015181600001908051906020019062000348929190620003c4565b50602082015181600101908051906020019062000367929190620003c4565b50604082015181600201556060820151816003015560808201518160040155905050620003a06006620003ae60201b62001bac1760201c565b505050505050505062000a33565b6001816000016000828254019250508190555050565b828054620003d2906200090f565b90600052602060002090601f016020900481019282620003f6576000855562000442565b82601f106200041157805160ff191683800117855562000442565b8280016001018555821562000442579182015b828111156200044157825182559160200191906001019062000424565b5b50905062000451919062000455565b5090565b5b808211156200047057600081600090555060010162000456565b5090565b60006200048b6200048584620007de565b620007b5565b90508083825260208201905082856020860282011115620004ab57600080fd5b60005b85811015620004fa57815167ffffffffffffffff811115620004cf57600080fd5b808601620004de898262000618565b85526020850194506020840193505050600181019050620004ae565b5050509392505050565b60006200051b62000515846200080d565b620007b5565b905080838252602082019050828560208602820111156200053b57600080fd5b60005b858110156200056f578162000554888262000645565b8452602084019350602083019250506001810190506200053e565b5050509392505050565b6000620005906200058a846200083c565b620007b5565b905082815260208101848484011115620005a957600080fd5b620005b6848285620008d9565b509392505050565b600082601f830112620005d057600080fd5b8151620005e284826020860162000474565b91505092915050565b600082601f830112620005fd57600080fd5b81516200060f84826020860162000504565b91505092915050565b600082601f8301126200062a57600080fd5b81516200063c84826020860162000579565b91505092915050565b600081519050620006568162000a19565b92915050565b600080600080600080600080610100898b0312156200067a57600080fd5b600089015167ffffffffffffffff8111156200069557600080fd5b620006a38b828c01620005be565b985050602089015167ffffffffffffffff811115620006c157600080fd5b620006cf8b828c01620005be565b975050604089015167ffffffffffffffff811115620006ed57600080fd5b620006fb8b828c01620005eb565b965050606089015167ffffffffffffffff8111156200071957600080fd5b620007278b828c01620005eb565b955050608089015167ffffffffffffffff8111156200074557600080fd5b620007538b828c0162000618565b94505060a089015167ffffffffffffffff8111156200077157600080fd5b6200077f8b828c0162000618565b93505060c0620007928b828c0162000645565b92505060e0620007a58b828c0162000645565b9150509295985092959890939650565b6000620007c1620007d4565b9050620007cf828262000945565b919050565b6000604051905090565b600067ffffffffffffffff821115620007fc57620007fb620009d9565b5b602082029050602081019050919050565b600067ffffffffffffffff8211156200082b576200082a620009d9565b5b602082029050602081019050919050565b600067ffffffffffffffff8211156200085a5762000859620009d9565b5b620008658262000a08565b9050602081019050919050565b60006200087f82620008cf565b91506200088c83620008cf565b9250827fffffffffffffffffffffffffffffffffffffffffffffffffffffffffffffffff03821115620008c457620008c36200097b565b5b828201905092915050565b6000819050919050565b60005b83811015620008f9578082015181840152602081019050620008dc565b8381111562000909576000848401525b50505050565b600060028204905060018216806200092857607f821691505b602082108114156200093f576200093e620009aa565b5b50919050565b620009508262000a08565b810181811067ffffffffffffffff82111715620009725762000971620009d9565b5b80604052505050565b7f4e487b7100000000000000000000000000000000000000000000000000000000600052601160045260246000fd5b7f4e487b7100000000000000000000000000000000000000000000000000000000600052602260045260246000fd5b7f4e487b7100000000000000000000000000000000000000000000000000000000600052604160045260246000fd5b6000601f19601f8301169050919050565b62000a2481620008cf565b811462000a3057600080fd5b50565b6143e38062000a436000396000f3fe608060405234801561001057600080fd5b50600436106101375760003560e01c80638e609eba116100b8578063b88d4fde1161007c578063b88d4fde14610367578063c87b56dd14610383578063d449cb02146103b3578063d4f24c5b146103d5578063e90eb7dc146103df578063e985e9c5146103fb57610137565b80638e609eba146102bc57806395d89b41146102da57806398da4c95146102f8578063a14f1ac71461032d578063a22cb4651461034b57610137565b8063356d3b0c116100ff578063356d3b0c146101f257806342842e0e146102105780636352211e1461022c57806370a082311461025c5780637df124a11461028c57610137565b806301ffc9a71461013c57806306fdde031461016c578063081812fc1461018a578063095ea7b3146101ba57806323b872dd146101d6575b600080fd5b61015660048036038101906101519190612ca6565b61042b565b604051610163919061350b565b60405180910390f35b61017461050d565b6040516101819190613526565b60405180910390f35b6101a4600480360381019061019f9190612cf8565b61059f565b6040516101b1919061344b565b60405180910390f35b6101d460048036038101906101cf9190612c6a565b610624565b005b6101f060048036038101906101eb9190612b64565b61073c565b005b6101fa61079c565b60405161020791906137e9565b60405180910390f35b61022a60048036038101906102259190612b64565b610974565b005b61024660048036038101906102419190612cf8565b610994565b604051610253919061344b565b60405180910390f35b61027660048036038101906102719190612aff565b610a46565b604051610283919061380b565b60405180910390f35b6102a660048036038101906102a19190612aff565b610afe565b6040516102b3919061380b565b60405180910390f35b6102c4610b16565b6040516102d191906137c7565b60405180910390f35b6102e2610c72565b6040516102ef9190613526565b60405180910390f35b610312600480360381019061030d9190612cf8565b610d04565b60405161032496959493929190613826565b60405180910390f35b610335610e50565b60405161034291906134e9565b60405180910390f35b61036560048036038101906103609190612c2e565b610ffb565b005b610381600480360381019061037c9190612bb3565b61117c565b005b61039d60048036038101906103989190612cf8565b6111de565b6040516103aa9190613526565b60405180910390f35b6103bb6113f9565b6040516103cc959493929190613548565b60405180910390f35b6103dd61152d565b005b6103f960048036038101906103f49190612cf8565b611724565b005b61041560048036038101906104109190612b28565b611b18565b604051610422919061350b565b60405180910390f35b60007f80ac58cd000000000000000000000000000000000000000000000000000000007bffffffffffffffffffffffffffffffffffffffffffffffffffffffff1916827bffffffffffffffffffffffffffffffffffffffffffffffffffffffff191614806104f657507f5b5e139f000000000000000000000000000000000000000000000000000000007bffffffffffffffffffffffffffffffffffffffffffffffffffffffff1916827bffffffffffffffffffffffffffffffffffffffffffffffffffffffff1916145b80610506575061050582611bc2565b5b9050919050565b60606000805461051c90613b6c565b80601f016020809104026020016040519081016040528092919081815260200182805461054890613b6c565b80156105955780601f1061056a57610100808354040283529160200191610595565b820191906000526020600020905b81548152906001019060200180831161057857829003601f168201915b5050505050905090565b60006105aa82611c2c565b6105e9576040517f08c379a00000000000000000000000000000000000000000000000000000000081526004016105e090613747565b60405180910390fd5b6004600083815260200190815260200160002060009054906101000a900473ffffffffffffffffffffffffffffffffffffffff169050919050565b600061062f82610994565b90508073ffffffffffffffffffffffffffffffffffffffff168373ffffffffffffffffffffffffffffffffffffffff1614156106a0576040517f08c379a000000000000000000000000000000000000000000000000000000000815260040161069790613787565b60405180910390fd5b8073ffffffffffffffffffffffffffffffffffffffff166106bf611c98565b73ffffffffffffffffffffffffffffffffffffffff1614806106ee57506106ed816106e8611c98565b611b18565b5b61072d576040517f08c379a0000000000000000000000000000000000000000000000000000000008152600401610724906136a7565b60405180910390fd5b6107378383611ca0565b505050565b61074d610747611c98565b82611d59565b61078c576040517f08c379a0000000000000000000000000000000000000000000000000000000008152600401610783906137a7565b60405180910390fd5b610797838383611e37565b505050565b6107a4612926565b6000600860003373ffffffffffffffffffffffffffffffffffffffff1673ffffffffffffffffffffffffffffffffffffffff168152602001908152602001600020549050600081111561096357600760008281526020019081526020016000206040518060c00160405290816000820154815260200160018201805461082990613b6c565b80601f016020809104026020016040519081016040528092919081815260200182805461085590613b6c565b80156108a25780601f10610877576101008083540402835291602001916108a2565b820191906000526020600020905b81548152906001019060200180831161088557829003601f168201915b505050505081526020016002820180546108bb90613b6c565b80601f01602080910402602001604051908101604052809291908181526020018280546108e790613b6c565b80156109345780601f1061090957610100808354040283529160200191610934565b820191906000526020600020905b81548152906001019060200180831161091757829003601f168201915b505050505081526020016003820154815260200160048201548152602001600582015481525050915050610971565b61096b612926565b80925050505b90565b61098f8383836040518060200160405280600081525061117c565b505050565b6000806002600084815260200190815260200160002060009054906101000a900473ffffffffffffffffffffffffffffffffffffffff169050600073ffffffffffffffffffffffffffffffffffffffff168173ffffffffffffffffffffffffffffffffffffffff161415610a3d576040517f08c379a0000000000000000000000000000000000000000000000000000000008152600401610a34906136e7565b60405180910390fd5b80915050919050565b60008073ffffffffffffffffffffffffffffffffffffffff168273ffffffffffffffffffffffffffffffffffffffff161415610ab7576040517f08c379a0000000000000000000000000000000000000000000000000000000008152600401610aae906136c7565b60405180910390fd5b600360008373ffffffffffffffffffffffffffffffffffffffff1673ffffffffffffffffffffffffffffffffffffffff168152602001908152602001600020549050919050565b60086020528060005260406000206000915090505481565b610b1e61295c565b600a6040518060a0016040529081600082018054610b3b90613b6c565b80601f0160208091040260200160405190810160405280929190818152602001828054610b6790613b6c565b8015610bb45780601f10610b8957610100808354040283529160200191610bb4565b820191906000526020600020905b815481529060010190602001808311610b9757829003601f168201915b50505050508152602001600182018054610bcd90613b6c565b80601f0160208091040260200160405190810160405280929190818152602001828054610bf990613b6c565b8015610c465780601f10610c1b57610100808354040283529160200191610c46565b820191906000526020600020905b815481529060010190602001808311610c2957829003601f168201915b505050505081526020016002820154815260200160038201548152602001600482015481525050905090565b606060018054610c8190613b6c565b80601f0160208091040260200160405190810160405280929190818152602001828054610cad90613b6c565b8015610cfa5780601f10610ccf57610100808354040283529160200191610cfa565b820191906000526020600020905b815481529060010190602001808311610cdd57829003601f168201915b5050505050905090565b6007602052806000526040600020600091509050806000015490806001018054610d2d90613b6c565b80601f0160208091040260200160405190810160405280929190818152602001828054610d5990613b6c565b8015610da65780601f10610d7b57610100808354040283529160200191610da6565b820191906000526020600020905b815481529060010190602001808311610d8957829003601f168201915b505050505090806002018054610dbb90613b6c565b80601f0160208091040260200160405190810160405280929190818152602001828054610de790613b6c565b8015610e345780601f10610e0957610100808354040283529160200191610e34565b820191906000526020600020905b815481529060010190602001808311610e1757829003601f168201915b5050505050908060030154908060040154908060050154905086565b60606009805480602002602001604051908101604052809291908181526020016000905b82821015610ff257838290600052602060002090600602016040518060c001604052908160008201548152602001600182018054610eb190613b6c565b80601f0160208091040260200160405190810160405280929190818152602001828054610edd90613b6c565b8015610f2a5780601f10610eff57610100808354040283529160200191610f2a565b820191906000526020600020905b815481529060010190602001808311610f0d57829003601f168201915b50505050508152602001600282018054610f4390613b6c565b80601f0160208091040260200160405190810160405280929190818152602001828054610f6f90613b6c565b8015610fbc5780601f10610f9157610100808354040283529160200191610fbc565b820191906000526020600020905b815481529060010190602001808311610f9f57829003601f168201915b50505050508152602001600382015481526020016004820154815260200160058201548152505081526020019060010190610e74565b50505050905090565b611003611c98565b73ffffffffffffffffffffffffffffffffffffffff168273ffffffffffffffffffffffffffffffffffffffff161415611071576040517f08c379a000000000000000000000000000000000000000000000000000000000815260040161106890613667565b60405180910390fd5b806005600061107e611c98565b73ffffffffffffffffffffffffffffffffffffffff1673ffffffffffffffffffffffffffffffffffffffff16815260200190815260200160002060008473ffffffffffffffffffffffffffffffffffffffff1673ffffffffffffffffffffffffffffffffffffffff16815260200190815260200160002060006101000a81548160ff0219169083151502179055508173ffffffffffffffffffffffffffffffffffffffff1661112b611c98565b73ffffffffffffffffffffffffffffffffffffffff167f17307eab39ab6107e8899845ad3d59bd9653f200f220920489ca2b5937696c3183604051611170919061350b565b60405180910390a35050565b61118d611187611c98565b83611d59565b6111cc576040517f08c379a00000000000000000000000000000000000000000000000000000000081526004016111c3906137a7565b60405180910390fd5b6111d884848484612093565b50505050565b60606000600760008481526020019081526020016000206040518060c00160405290816000820154815260200160018201805461121a90613b6c565b80601f016020809104026020016040519081016040528092919081815260200182805461124690613b6c565b80156112935780601f1061126857610100808354040283529160200191611293565b820191906000526020600020905b81548152906001019060200180831161127657829003601f168201915b505050505081526020016002820180546112ac90613b6c565b80601f01602080910402602001604051908101604052809291908181526020018280546112d890613b6c565b80156113255780601f106112fa57610100808354040283529160200191611325565b820191906000526020600020905b81548152906001019060200180831161130857829003601f168201915b5050505050815260200160038201548152602001600482015481526020016005820154815250509050600061135d82606001516120ef565b9050600061136e83608001516120ef565b9050600061137f8460a001516120ef565b905060006113c58560200151611394896120ef565b87604001518787876040516020016113b196959493929190613384565b60405160208183030381529060405261229c565b90506000816040516020016113da9190613429565b6040516020818303038152906040529050809650505050505050919050565b600a80600001805461140a90613b6c565b80601f016020809104026020016040519081016040528092919081815260200182805461143690613b6c565b80156114835780601f1061145857610100808354040283529160200191611483565b820191906000526020600020905b81548152906001019060200180831161146657829003601f168201915b50505050509080600101805461149890613b6c565b80601f01602080910402602001604051908101604052809291908181526020018280546114c490613b6c565b80156115115780601f106114e657610100808354040283529160200191611511565b820191906000526020600020905b8154815290600101906020018083116114f457829003601f168201915b5050505050908060020154908060030154908060040154905085565b6000600860003373ffffffffffffffffffffffffffffffffffffffff1673ffffffffffffffffffffffffffffffffffffffff168152602001908152602001600020549050600060076000838152602001908152602001600020905060008160030154116115cf576040517f08c379a00000000000000000000000000000000000000000000000000000000081526004016115c690613707565b60405180910390fd5b6000600a6002015411611617576040517f08c379a000000000000000000000000000000000000000000000000000000000815260040161160e906135e7565b60405180910390fd5b8060050154600a600201541015611638576000600a60020181905550611657565b8060050154600a6002015461164d9190613a82565b600a600201819055505b600a60040154816003015410156116775760008160030181905550611695565b600a60040154816003015461168c9190613a82565b81600301819055505b7f87de234895c615ac99646fd23003d86e2007961bc7dd35dc0c196bab2b24bab8600a6002015482600301546040516116cf929190613895565b60405180910390a16117206040518060400160405280601b81526020017f506c617965723a202573204850207c20426f73733a20257320485000000000008152508260030154600a6002015461245a565b5050565b600061173060066124f9565b905061173c3382612507565b6040518060c0016040528083815260200160098481548110611787577f4e487b7100000000000000000000000000000000000000000000000000000000600052603260045260246000fd5b906000526020600020906006020160010180546117a390613b6c565b80601f01602080910402602001604051908101604052809291908181526020018280546117cf90613b6c565b801561181c5780601f106117f15761010080835404028352916020019161181c565b820191906000526020600020905b8154815290600101906020018083116117ff57829003601f168201915b5050505050815260200160098481548110611860577f4e487b7100000000000000000000000000000000000000000000000000000000600052603260045260246000fd5b9060005260206000209060060201600201805461187c90613b6c565b80601f01602080910402602001604051908101604052809291908181526020018280546118a890613b6c565b80156118f55780601f106118ca576101008083540402835291602001916118f5565b820191906000526020600020905b8154815290600101906020018083116118d857829003601f168201915b5050505050815260200160098481548110611939577f4e487b7100000000000000000000000000000000000000000000000000000000600052603260045260246000fd5b90600052602060002090600602016003015481526020016009848154811061198a577f4e487b7100000000000000000000000000000000000000000000000000000000600052603260045260246000fd5b9060005260206000209060060201600301548152602001600984815481106119db577f4e487b7100000000000000000000000000000000000000000000000000000000600052603260045260246000fd5b90600052602060002090600602016005015481525060076000838152602001908152602001600020600082015181600001556020820151816001019080519060200190611a2992919061298b565b506040820151816002019080519060200190611a4692919061298b565b50606082015181600301556080820151816004015560a0820151816005015590505080600860003373ffffffffffffffffffffffffffffffffffffffff1673ffffffffffffffffffffffffffffffffffffffff16815260200190815260200160002081905550611acf60405180606001604052806038815260200161433660389139828461245a565b611ad96006611bac565b7f9ebada08c3c21c172cc2a10a368461cde692195ac0db54584007867b48b68b1b338284604051611b0c939291906134b2565b60405180910390a15050565b6000600560008473ffffffffffffffffffffffffffffffffffffffff1673ffffffffffffffffffffffffffffffffffffffff16815260200190815260200160002060008373ffffffffffffffffffffffffffffffffffffffff1673ffffffffffffffffffffffffffffffffffffffff16815260200190815260200160002060009054906101000a900460ff16905092915050565b6001816000016000828254019250508190555050565b60007f01ffc9a7000000000000000000000000000000000000000000000000000000007bffffffffffffffffffffffffffffffffffffffffffffffffffffffff1916827bffffffffffffffffffffffffffffffffffffffffffffffffffffffff1916149050919050565b60008073ffffffffffffffffffffffffffffffffffffffff166002600084815260200190815260200160002060009054906101000a900473ffffffffffffffffffffffffffffffffffffffff1673ffffffffffffffffffffffffffffffffffffffff1614159050919050565b600033905090565b816004600083815260200190815260200160002060006101000a81548173ffffffffffffffffffffffffffffffffffffffff021916908373ffffffffffffffffffffffffffffffffffffffff160217905550808273ffffffffffffffffffffffffffffffffffffffff16611d1383610994565b73ffffffffffffffffffffffffffffffffffffffff167f8c5be1e5ebec7d5bd14f71427d1e84f3dd0314c0f7b2291e5b200ac8c7c3b92560405160405180910390a45050565b6000611d6482611c2c565b611da3576040517f08c379a0000000000000000000000000000000000000000000000000000000008152600401611d9a90613687565b60405180910390fd5b6000611dae83610994565b90508073ffffffffffffffffffffffffffffffffffffffff168473ffffffffffffffffffffffffffffffffffffffff161480611e1d57508373ffffffffffffffffffffffffffffffffffffffff16611e058461059f565b73ffffffffffffffffffffffffffffffffffffffff16145b80611e2e5750611e2d8185611b18565b5b91505092915050565b8273ffffffffffffffffffffffffffffffffffffffff16611e5782610994565b73ffffffffffffffffffffffffffffffffffffffff1614611ead576040517f08c379a0000000000000000000000000000000000000000000000000000000008152600401611ea490613767565b60405180910390fd5b600073ffffffffffffffffffffffffffffffffffffffff168273ffffffffffffffffffffffffffffffffffffffff161415611f1d576040517f08c379a0000000000000000000000000000000000000000000000000000000008152600401611f1490613647565b60405180910390fd5b611f28838383612525565b611f33600082611ca0565b6001600360008573ffffffffffffffffffffffffffffffffffffffff1673ffffffffffffffffffffffffffffffffffffffff1681526020019081526020016000206000828254611f839190613a82565b925050819055506001600360008473ffffffffffffffffffffffffffffffffffffffff1673ffffffffffffffffffffffffffffffffffffffff1681526020019081526020016000206000828254611fda91906139a1565b92505081905550816002600083815260200190815260200160002060006101000a81548173ffffffffffffffffffffffffffffffffffffffff021916908373ffffffffffffffffffffffffffffffffffffffff160217905550808273ffffffffffffffffffffffffffffffffffffffff168473ffffffffffffffffffffffffffffffffffffffff167fddf252ad1be2c89b69c2b068fc378daa952ba7f163c4a11628f55a4df523b3ef60405160405180910390a4505050565b61209e848484611e37565b6120aa8484848461252a565b6120e9576040517f08c379a00000000000000000000000000000000000000000000000000000000081526004016120e090613607565b60405180910390fd5b50505050565b60606000821415612137576040518060400160405280600181526020017f30000000000000000000000000000000000000000000000000000000000000008152509050612297565b600082905060005b6000821461216957808061215290613bcf565b915050600a8261216291906139f7565b915061213f565b60008167ffffffffffffffff8111156121ab577f4e487b7100000000000000000000000000000000000000000000000000000000600052604160045260246000fd5b6040519080825280601f01601f1916602001820160405280156121dd5781602001600182028036833780820191505090505b5090505b60008514612290576001826121f69190613a82565b9150600a856122059190613c18565b603061221191906139a1565b60f81b81838151811061224d577f4e487b7100000000000000000000000000000000000000000000000000000000600052603260045260246000fd5b60200101907effffffffffffffffffffffffffffffffffffffffffffffffffffffffffffff1916908160001a905350600a8561228991906139f7565b94506121e1565b8093505050505b919050565b606060008251905060008114156122c55760405180602001604052806000815250915050612455565b600060036002836122d691906139a1565b6122e091906139f7565b60046122ec9190613a28565b905060006020826122fd91906139a1565b67ffffffffffffffff81111561233c577f4e487b7100000000000000000000000000000000000000000000000000000000600052604160045260246000fd5b6040519080825280601f01601f19166020018201604052801561236e5781602001600182028036833780820191505090505b509050600060405180606001604052806040815260200161436e604091399050600181016020830160005b868110156124125760038101905062ffffff818a015116603f8160121c168401518060081b905060ff603f83600c1c1686015116810190508060081b905060ff603f8360061c1686015116810190508060081b905060ff603f831686015116810190508060e01b90508084526004840193505050612399565b50600386066001811461242c576002811461243c57612447565b613d3d60f01b6002830352612447565b603d60f81b60018303525b508484525050819450505050505b919050565b6124f4838383604051602401612472939291906135a9565b6040516020818303038152906040527f969cdd03000000000000000000000000000000000000000000000000000000007bffffffffffffffffffffffffffffffffffffffffffffffffffffffff19166020820180517bffffffffffffffffffffffffffffffffffffffffffffffffffffffff83818316178352505050506126c1565b505050565b600081600001549050919050565b6125218282604051806020016040528060008152506126ea565b5050565b505050565b600061254b8473ffffffffffffffffffffffffffffffffffffffff16612745565b156126b4578373ffffffffffffffffffffffffffffffffffffffff1663150b7a02612574611c98565b8786866040518563ffffffff1660e01b81526004016125969493929190613466565b602060405180830381600087803b1580156125b057600080fd5b505af19250505080156125e157506040513d601f19601f820116820180604052508101906125de9190612ccf565b60015b612664573d8060008114612611576040519150601f19603f3d011682016040523d82523d6000602084013e612616565b606091505b5060008151141561265c576040517f08c379a000000000000000000000000000000000000000000000000000000000815260040161265390613607565b60405180910390fd5b805181602001fd5b63150b7a0260e01b7bffffffffffffffffffffffffffffffffffffffffffffffffffffffff1916817bffffffffffffffffffffffffffffffffffffffffffffffffffffffff1916149150506126b9565b600190505b949350505050565b60008151905060006a636f6e736f6c652e6c6f679050602083016000808483855afa5050505050565b6126f48383612758565b612701600084848461252a565b612740576040517f08c379a000000000000000000000000000000000000000000000000000000000815260040161273790613607565b60405180910390fd5b505050565b600080823b905060008111915050919050565b600073ffffffffffffffffffffffffffffffffffffffff168273ffffffffffffffffffffffffffffffffffffffff1614156127c8576040517f08c379a00000000000000000000000000000000000000000000000000000000081526004016127bf90613727565b60405180910390fd5b6127d181611c2c565b15612811576040517f08c379a000000000000000000000000000000000000000000000000000000000815260040161280890613627565b60405180910390fd5b61281d60008383612525565b6001600360008473ffffffffffffffffffffffffffffffffffffffff1673ffffffffffffffffffffffffffffffffffffffff168152602001908152602001600020600082825461286d91906139a1565b92505081905550816002600083815260200190815260200160002060006101000a81548173ffffffffffffffffffffffffffffffffffffffff021916908373ffffffffffffffffffffffffffffffffffffffff160217905550808273ffffffffffffffffffffffffffffffffffffffff16600073ffffffffffffffffffffffffffffffffffffffff167fddf252ad1be2c89b69c2b068fc378daa952ba7f163c4a11628f55a4df523b3ef60405160405180910390a45050565b6040518060c001604052806000815260200160608152602001606081526020016000815260200160008152602001600081525090565b6040518060a0016040528060608152602001606081526020016000815260200160008152602001600081525090565b82805461299790613b6c565b90600052602060002090601f0160209004810192826129b95760008555612a00565b82601f106129d257805160ff1916838001178555612a00565b82800160010185558215612a00579182015b828111156129ff5782518255916020019190600101906129e4565b5b509050612a0d9190612a11565b5090565b5b80821115612a2a576000816000905550600101612a12565b5090565b6000612a41612a3c846138e3565b6138be565b905082815260208101848484011115612a5957600080fd5b612a64848285613b2a565b509392505050565b600081359050612a7b816142d9565b92915050565b600081359050612a90816142f0565b92915050565b600081359050612aa581614307565b92915050565b600081519050612aba81614307565b92915050565b600082601f830112612ad157600080fd5b8135612ae1848260208601612a2e565b91505092915050565b600081359050612af98161431e565b92915050565b600060208284031215612b1157600080fd5b6000612b1f84828501612a6c565b91505092915050565b60008060408385031215612b3b57600080fd5b6000612b4985828601612a6c565b9250506020612b5a85828601612a6c565b9150509250929050565b600080600060608486031215612b7957600080fd5b6000612b8786828701612a6c565b9350506020612b9886828701612a6c565b9250506040612ba986828701612aea565b9150509250925092565b60008060008060808587031215612bc957600080fd5b6000612bd787828801612a6c565b9450506020612be887828801612a6c565b9350506040612bf987828801612aea565b925050606085013567ffffffffffffffff811115612c1657600080fd5b612c2287828801612ac0565b91505092959194509250565b60008060408385031215612c4157600080fd5b6000612c4f85828601612a6c565b9250506020612c6085828601612a81565b9150509250929050565b60008060408385031215612c7d57600080fd5b6000612c8b85828601612a6c565b9250506020612c9c85828601612aea565b9150509250929050565b600060208284031215612cb857600080fd5b6000612cc684828501612a96565b91505092915050565b600060208284031215612ce157600080fd5b6000612cef84828501612aab565b91505092915050565b600060208284031215612d0a57600080fd5b6000612d1884828501612aea565b91505092915050565b6000612d2d8383613246565b905092915050565b612d3e81613ab6565b82525050565b6000612d4f82613924565b612d598185613952565b935083602082028501612d6b85613914565b8060005b85811015612da75784840389528151612d888582612d21565b9450612d9383613945565b925060208a01995050600181019050612d6f565b50829750879550505050505092915050565b612dc281613ac8565b82525050565b6000612dd38261392f565b612ddd8185613963565b9350612ded818560208601613b39565b612df681613d05565b840191505092915050565b6000612e0c8261393a565b612e168185613974565b9350612e26818560208601613b39565b612e2f81613d05565b840191505092915050565b6000612e458261393a565b612e4f8185613985565b9350612e5f818560208601613b39565b612e6881613d05565b840191505092915050565b6000612e7e8261393a565b612e888185613996565b9350612e98818560208601613b39565b80840191505092915050565b6000612eb1600b83613996565b9150612ebc82613d16565b600b82019050919050565b6000612ed4601f83613985565b9150612edf82613d3f565b602082019050919050565b6000612ef7603283613985565b9150612f0282613d68565b604082019050919050565b6000612f1a601c83613985565b9150612f2582613db7565b602082019050919050565b6000612f3d605283613996565b9150612f4882613de0565b605282019050919050565b6000612f60600e83613996565b9150612f6b82613e55565b600e82019050919050565b6000612f83602483613985565b9150612f8e82613e7e565b604082019050919050565b6000612fa6601983613985565b9150612fb182613ecd565b602082019050919050565b6000612fc9602c83613985565b9150612fd482613ef6565b604082019050919050565b6000612fec603883613985565b9150612ff782613f45565b604082019050919050565b600061300f602a83613985565b915061301a82613f94565b604082019050919050565b6000613032602983613985565b915061303d82613fe3565b604082019050919050565b6000613055601a83613985565b915061306082614032565b602082019050919050565b6000613078600483613996565b91506130838261405b565b600482019050919050565b600061309b602083613985565b91506130a682614084565b602082019050919050565b60006130be602c83613985565b91506130c9826140ad565b604082019050919050565b60006130e1602983613985565b91506130ec826140fc565b604082019050919050565b6000613104600a83613996565b915061310f8261414b565b600a82019050919050565b6000613127602183613985565b915061313282614174565b604082019050919050565b600061314a601d83613996565b9150613155826141c3565b601d82019050919050565b600061316d603183613985565b9150613178826141ec565b604082019050919050565b6000613190603d83613996565b915061319b8261423b565b603d82019050919050565b60006131b3602d83613996565b91506131be8261428a565b602d82019050919050565b600060a08301600083015184820360008601526131e68282612e01565b915050602083015184820360208601526132008282612e01565b91505060408301516132156040860182613366565b5060608301516132286060860182613366565b50608083015161323b6080860182613366565b508091505092915050565b600060c08301600083015161325e6000860182613366565b50602083015184820360208601526132768282612e01565b915050604083015184820360408601526132908282612e01565b91505060608301516132a56060860182613366565b5060808301516132b86080860182613366565b5060a08301516132cb60a0860182613366565b508091505092915050565b600060c0830160008301516132ee6000860182613366565b50602083015184820360208601526133068282612e01565b915050604083015184820360408601526133208282612e01565b91505060608301516133356060860182613366565b5060808301516133486080860182613366565b5060a083015161335b60a0860182613366565b508091505092915050565b61336f81613b20565b82525050565b61337e81613b20565b82525050565b600061338f826130f7565b915061339b8289612e73565b91506133a682612ea4565b91506133b28288612e73565b91506133bd82612f30565b91506133c98287612e73565b91506133d482613183565b91506133e08286612e73565b91506133eb82612f53565b91506133f78285612e73565b9150613402826131a6565b915061340e8284612e73565b91506134198261306b565b9150819050979650505050505050565b60006134348261313d565b91506134408284612e73565b915081905092915050565b60006020820190506134606000830184612d35565b92915050565b600060808201905061347b6000830187612d35565b6134886020830186612d35565b6134956040830185613375565b81810360608301526134a78184612dc8565b905095945050505050565b60006060820190506134c76000830186612d35565b6134d46020830185613375565b6134e16040830184613375565b949350505050565b600060208201905081810360008301526135038184612d44565b905092915050565b60006020820190506135206000830184612db9565b92915050565b600060208201905081810360008301526135408184612e3a565b905092915050565b600060a08201905081810360008301526135628188612e3a565b905081810360208301526135768187612e3a565b90506135856040830186613375565b6135926060830185613375565b61359f6080830184613375565b9695505050505050565b600060608201905081810360008301526135c38186612e3a565b90506135d26020830185613375565b6135df6040830184613375565b949350505050565b6000602082019050818103600083015261360081612ec7565b9050919050565b6000602082019050818103600083015261362081612eea565b9050919050565b6000602082019050818103600083015261364081612f0d565b9050919050565b6000602082019050818103600083015261366081612f76565b9050919050565b6000602082019050818103600083015261368081612f99565b9050919050565b600060208201905081810360008301526136a081612fbc565b9050919050565b600060208201905081810360008301526136c081612fdf565b9050919050565b600060208201905081810360008301526136e081613002565b9050919050565b6000602082019050818103600083015261370081613025565b9050919050565b6000602082019050818103600083015261372081613048565b9050919050565b600060208201905081810360008301526137408161308e565b9050919050565b60006020820190508181036000830152613760816130b1565b9050919050565b60006020820190508181036000830152613780816130d4565b9050919050565b600060208201905081810360008301526137a08161311a565b9050919050565b600060208201905081810360008301526137c081613160565b9050919050565b600060208201905081810360008301526137e181846131c9565b905092915050565b6000602082019050818103600083015261380381846132d6565b905092915050565b60006020820190506138206000830184613375565b92915050565b600060c08201905061383b6000830189613375565b818103602083015261384d8188612e3a565b905081810360408301526138618187612e3a565b90506138706060830186613375565b61387d6080830185613375565b61388a60a0830184613375565b979650505050505050565b60006040820190506138aa6000830185613375565b6138b76020830184613375565b9392505050565b60006138c86138d9565b90506138d48282613b9e565b919050565b6000604051905090565b600067ffffffffffffffff8211156138fe576138fd613cd6565b5b61390782613d05565b9050602081019050919050565b6000819050602082019050919050565b600081519050919050565b600081519050919050565b600081519050919050565b6000602082019050919050565b600082825260208201905092915050565b600082825260208201905092915050565b600082825260208201905092915050565b600082825260208201905092915050565b600081905092915050565b60006139ac82613b20565b91506139b783613b20565b9250827fffffffffffffffffffffffffffffffffffffffffffffffffffffffffffffffff038211156139ec576139eb613c49565b5b828201905092915050565b6000613a0282613b20565b9150613a0d83613b20565b925082613a1d57613a1c613c78565b5b828204905092915050565b6000613a3382613b20565b9150613a3e83613b20565b9250817fffffffffffffffffffffffffffffffffffffffffffffffffffffffffffffffff0483118215151615613a7757613a76613c49565b5b828202905092915050565b6000613a8d82613b20565b9150613a9883613b20565b925082821015613aab57613aaa613c49565b5b828203905092915050565b6000613ac182613b00565b9050919050565b60008115159050919050565b60007fffffffff0000000000000000000000000000000000000000000000000000000082169050919050565b600073ffffffffffffffffffffffffffffffffffffffff82169050919050565b6000819050919050565b82818337600083830152505050565b60005b83811015613b57578082015181840152602081019050613b3c565b83811115613b66576000848401525b50505050565b60006002820490506001821680613b8457607f821691505b60208210811415613b9857613b97613ca7565b5b50919050565b613ba782613d05565b810181811067ffffffffffffffff82111715613bc657613bc5613cd6565b5b80604052505050565b6000613bda82613b20565b91507fffffffffffffffffffffffffffffffffffffffffffffffffffffffffffffffff821415613c0d57613c0c613c49565b5b600182019050919050565b6000613c2382613b20565b9150613c2e83613b20565b925082613c3e57613c3d613c78565b5b828206905092915050565b7f4e487b7100000000000000000000000000000000000000000000000000000000600052601160045260246000fd5b7f4e487b7100000000000000000000000000000000000000000000000000000000600052601260045260246000fd5b7f4e487b7100000000000000000000000000000000000000000000000000000000600052602260045260246000fd5b7f4e487b7100000000000000000000000000000000000000000000000000000000600052604160045260246000fd5b6000601f19601f8301169050919050565b7f202d2d204e465420233a20000000000000000000000000000000000000000000600082015250565b7f426f73732068617320616c7265616479206265656e2064656665617465642100600082015250565b7f4552433732313a207472616e7366657220746f206e6f6e20455243373231526560008201527f63656976657220696d706c656d656e7465720000000000000000000000000000602082015250565b7f4552433732313a20746f6b656e20616c7265616479206d696e74656400000000600082015250565b7f222c20226465736372697074696f6e223a202243686172616374657220666f7260008201527f20616e20757020616e6420636f6d696e672067616d65202d20536f7070726f2060208201527f47616d6521222c2022696d616765223a20220000000000000000000000000000604082015250565b7f2c20226d61785f76616c7565223a000000000000000000000000000000000000600082015250565b7f4552433732313a207472616e7366657220746f20746865207a65726f2061646460008201527f7265737300000000000000000000000000000000000000000000000000000000602082015250565b7f4552433732313a20617070726f766520746f2063616c6c657200000000000000600082015250565b7f4552433732313a206f70657261746f7220717565727920666f72206e6f6e657860008201527f697374656e7420746f6b656e0000000000000000000000000000000000000000602082015250565b7f4552433732313a20617070726f76652063616c6c6572206973206e6f74206f7760008201527f6e6572206e6f7220617070726f76656420666f7220616c6c0000000000000000602082015250565b7f4552433732313a2062616c616e636520717565727920666f7220746865207a6560008201527f726f206164647265737300000000000000000000000000000000000000000000602082015250565b7f4552433732313a206f776e657220717565727920666f72206e6f6e657869737460008201527f656e7420746f6b656e0000000000000000000000000000000000000000000000602082015250565b7f4f68206e6f2120506c6179657220686173206661696e74656421000000000000600082015250565b7f7d205d7d00000000000000000000000000000000000000000000000000000000600082015250565b7f4552433732313a206d696e7420746f20746865207a65726f2061646472657373600082015250565b7f4552433732313a20617070726f76656420717565727920666f72206e6f6e657860008201527f697374656e7420746f6b656e0000000000000000000000000000000000000000602082015250565b7f4552433732313a207472616e73666572206f6620746f6b656e2074686174206960008201527f73206e6f74206f776e0000000000000000000000000000000000000000000000602082015250565b7f7b226e616d65223a202200000000000000000000000000000000000000000000600082015250565b7f4552433732313a20617070726f76616c20746f2063757272656e74206f776e6560008201527f7200000000000000000000000000000000000000000000000000000000000000602082015250565b7f646174613a6170706c69636174696f6e2f6a736f6e3b6261736536342c000000600082015250565b7f4552433732313a207472616e736665722063616c6c6572206973206e6f74206f60008201527f776e6572206e6f7220617070726f766564000000000000000000000000000000602082015250565b7f222c202261747472696275746573223a205b207b202274726169745f7479706560008201527f223a20224865616c746820506f696e7473222c202276616c7565223a20000000602082015250565b7f7d2c207b202274726169745f74797065223a202241747461636b2044616d616760008201527f65222c202276616c7565223a2000000000000000000000000000000000000000602082015250565b6142e281613ab6565b81146142ed57600080fd5b50565b6142f981613ac8565b811461430457600080fd5b50565b61431081613ad4565b811461431b57600080fd5b50565b61432781613b20565b811461433257600080fd5b5056fe4d696e74656420636861726163746572204e465420772f20746f6b656e496420257320616e6420636861726163746572496e6465782025734142434445464748494a4b4c4d4e4f505152535455565758595a6162636465666768696a6b6c6d6e6f707172737475767778797a303132333435363738392b2fa2646970667358221220f0f674c49309d9d2be45494838ee994fa5302607abc15d81b4ea090e8a2729db64736f6c63430008040033",
  "linkReferences": {},
  "deployedLinkReferences": {}
}